{
  "_format": "hh3-artifact-1",
  "contractName": "CampaignWallet",
  "sourceName": "contracts/CampaignWallet.sol",
  "abi": [
    {
      "inputs": [
        {
          "internalType": "address",
          "name": "_sponsor",
          "type": "address"
        },
        {
          "internalType": "string",
          "name": "_campaignId",
          "type": "string"
        },
        {
          "internalType": "string",
          "name": "_brand",
          "type": "string"
        },
        {
          "internalType": "uint256",
          "name": "_budget",
          "type": "uint256"
        },
        {
          "internalType": "uint256",
          "name": "_pacing",
          "type": "uint256"
        },
        {
          "internalType": "string",
          "name": "_landingUrl",
          "type": "string"
        },
        {
          "internalType": "uint256",
          "name": "_impressionRate",
          "type": "uint256"
        },
        {
          "internalType": "uint256",
          "name": "_clickRate",
          "type": "uint256"
        }
      ],
      "stateMutability": "nonpayable",
      "type": "constructor"
    },
    {
      "anonymous": false,
      "inputs": [
        {
          "indexed": true,
          "internalType": "address",
          "name": "publisher",
          "type": "address"
        },
        {
          "indexed": false,
          "internalType": "string",
          "name": "ipfsCID",
          "type": "string"
        },
        {
          "indexed": false,
          "internalType": "uint256",
          "name": "impressions",
          "type": "uint256"
        },
        {
          "indexed": false,
          "internalType": "uint256",
          "name": "clicks",
          "type": "uint256"
        },
        {
          "indexed": false,
          "internalType": "uint256",
          "name": "reach",
          "type": "uint256"
        },
        {
          "indexed": false,
          "internalType": "bytes32",
          "name": "lastHash",
          "type": "bytes32"
        },
        {
          "indexed": false,
          "internalType": "uint256",
          "name": "timestamp",
          "type": "uint256"
        }
      ],
      "name": "BatchSubmitted",
      "type": "event"
    },
    {
      "anonymous": false,
      "inputs": [
        {
          "indexed": false,
          "internalType": "uint256",
          "name": "newBudget",
          "type": "uint256"
        },
        {
          "indexed": false,
          "internalType": "uint256",
          "name": "newPacing",
          "type": "uint256"
        }
      ],
      "name": "BudgetAdjusted",
      "type": "event"
    },
    {
      "anonymous": false,
      "inputs": [
        {
          "indexed": false,
          "internalType": "uint256",
          "name": "remainingBudget",
          "type": "uint256"
        }
      ],
      "name": "CampaignCancelled",
      "type": "event"
    },
    {
      "anonymous": false,
      "inputs": [
        {
          "indexed": true,
          "internalType": "address",
          "name": "sponsor",
          "type": "address"
        },
        {
          "indexed": true,
          "internalType": "address",
          "name": "agent",
          "type": "address"
        },
        {
          "indexed": false,
          "internalType": "string",
          "name": "brand",
          "type": "string"
        },
        {
          "indexed": false,
          "internalType": "string",
          "name": "campaignId",
          "type": "string"
        }
      ],
      "name": "CampaignCreated",
      "type": "event"
    },
    {
      "anonymous": false,
      "inputs": [
        {
          "indexed": false,
          "internalType": "string",
          "name": "eventType",
          "type": "string"
        },
        {
          "indexed": false,
          "internalType": "string",
          "name": "promotionId",
          "type": "string"
        },
        {
          "indexed": true,
          "internalType": "address",
          "name": "publisher",
          "type": "address"
        },
        {
          "indexed": false,
          "internalType": "uint256",
          "name": "payout",
          "type": "uint256"
        }
      ],
      "name": "EventRecorded",
      "type": "event"
    },
    {
      "anonymous": false,
      "inputs": [
        {
          "indexed": true,
          "internalType": "address",
          "name": "funder",
          "type": "address"
        },
        {
          "indexed": false,
          "internalType": "uint256",
          "name": "amount",
          "type": "uint256"
        }
      ],
      "name": "Funded",
      "type": "event"
    },
    {
      "anonymous": false,
      "inputs": [
        {
          "indexed": true,
          "internalType": "bytes32",
          "name": "hash",
          "type": "bytes32"
        },
        {
          "indexed": true,
          "internalType": "bytes32",
          "name": "previousHash",
          "type": "bytes32"
        },
        {
          "indexed": false,
          "internalType": "uint256",
          "name": "timestamp",
          "type": "uint256"
        }
      ],
      "name": "HashChainRecorded",
      "type": "event"
    },
    {
      "anonymous": false,
      "inputs": [
        {
          "indexed": false,
          "internalType": "string",
          "name": "promotionId",
          "type": "string"
        },
        {
          "indexed": false,
          "internalType": "string",
          "name": "creative",
          "type": "string"
        },
        {
          "indexed": false,
          "internalType": "string",
          "name": "title",
          "type": "string"
        }
      ],
      "name": "PromotionAdded",
      "type": "event"
    },
    {
      "anonymous": false,
      "inputs": [
        {
          "indexed": true,
          "internalType": "uint256",
          "name": "index",
          "type": "uint256"
        },
        {
          "indexed": false,
          "internalType": "bool",
          "name": "active",
          "type": "bool"
        }
      ],
      "name": "PromotionToggled",
      "type": "event"
    },
    {
      "anonymous": false,
      "inputs": [
        {
          "indexed": true,
          "internalType": "uint256",
          "name": "index",
          "type": "uint256"
        },
        {
          "indexed": false,
          "internalType": "string",
          "name": "promotionId",
          "type": "string"
        }
      ],
      "name": "PromotionUpdated",
      "type": "event"
    },
    {
      "inputs": [],
      "name": "MAX_PROMOTIONS",
      "outputs": [
        {
          "internalType": "uint256",
          "name": "",
          "type": "uint256"
        }
      ],
      "stateMutability": "view",
      "type": "function"
    },
    {
      "inputs": [],
      "name": "active",
      "outputs": [
        {
          "internalType": "bool",
          "name": "",
          "type": "bool"
        }
      ],
      "stateMutability": "view",
      "type": "function"
    },
    {
      "inputs": [
        {
          "internalType": "string",
          "name": "_promotionId",
          "type": "string"
        },
        {
          "internalType": "string",
          "name": "_creative",
          "type": "string"
        },
        {
          "internalType": "string",
          "name": "_title",
          "type": "string"
        },
        {
          "internalType": "string",
          "name": "_subtitle",
          "type": "string"
        }
      ],
      "name": "addPromotion",
      "outputs": [],
      "stateMutability": "nonpayable",
      "type": "function"
    },
    {
      "inputs": [
        {
          "internalType": "string[]",
          "name": "_promotionIds",
          "type": "string[]"
        },
        {
          "internalType": "string[]",
          "name": "_creatives",
          "type": "string[]"
        },
        {
          "internalType": "string[]",
          "name": "_titles",
          "type": "string[]"
        },
        {
          "internalType": "string[]",
          "name": "_subtitles",
          "type": "string[]"
        }
      ],
      "name": "addPromotionsBatch",
      "outputs": [],
      "stateMutability": "nonpayable",
      "type": "function"
    },
    {
      "inputs": [],
      "name": "agent",
      "outputs": [
        {
          "internalType": "address",
          "name": "",
          "type": "address"
        }
      ],
      "stateMutability": "view",
      "type": "function"
    },
    {
      "inputs": [],
      "name": "brand",
      "outputs": [
        {
          "internalType": "string",
          "name": "",
          "type": "string"
        }
      ],
      "stateMutability": "view",
      "type": "function"
    },
    {
      "inputs": [],
      "name": "budget",
      "outputs": [
        {
          "internalType": "uint256",
          "name": "",
          "type": "uint256"
        }
      ],
      "stateMutability": "view",
      "type": "function"
    },
    {
      "inputs": [],
      "name": "campaignId",
      "outputs": [
        {
          "internalType": "string",
          "name": "",
          "type": "string"
        }
      ],
      "stateMutability": "view",
      "type": "function"
    },
    {
      "inputs": [],
      "name": "cancel",
      "outputs": [],
      "stateMutability": "nonpayable",
      "type": "function"
    },
    {
      "inputs": [],
      "name": "clickRate",
      "outputs": [
        {
          "internalType": "uint256",
          "name": "",
          "type": "uint256"
        }
      ],
      "stateMutability": "view",
      "type": "function"
    },
    {
      "inputs": [
        {
          "internalType": "uint256",
          "name": "additionalBudget",
          "type": "uint256"
        },
        {
          "internalType": "uint256",
          "name": "newPacing",
          "type": "uint256"
        }
      ],
      "name": "fund",
      "outputs": [],
      "stateMutability": "nonpayable",
      "type": "function"
    },
    {
      "inputs": [],
      "name": "getActivePromotions",
      "outputs": [
        {
          "internalType": "uint256[]",
          "name": "",
          "type": "uint256[]"
        }
      ],
      "stateMutability": "view",
      "type": "function"
    },
    {
      "inputs": [
        {
          "internalType": "uint256",
          "name": "index",
          "type": "uint256"
        }
      ],
      "name": "getEvent",
      "outputs": [
        {
          "internalType": "string",
          "name": "eventType",
          "type": "string"
        },
        {
          "internalType": "string",
          "name": "promotionId",
          "type": "string"
        },
        {
          "internalType": "address",
          "name": "publisher",
          "type": "address"
        },
        {
          "internalType": "address",
          "name": "user",
          "type": "address"
        },
        {
          "internalType": "uint256",
          "name": "timestamp",
          "type": "uint256"
        },
        {
          "internalType": "uint256",
          "name": "payout",
          "type": "uint256"
        }
      ],
      "stateMutability": "view",
      "type": "function"
    },
    {
      "inputs": [],
      "name": "getEventCount",
      "outputs": [
        {
          "internalType": "uint256",
          "name": "",
          "type": "uint256"
        }
      ],
      "stateMutability": "view",
      "type": "function"
    },
    {
      "inputs": [
        {
          "internalType": "uint256",
          "name": "index",
          "type": "uint256"
        }
      ],
      "name": "getPromotion",
      "outputs": [
        {
          "internalType": "string",
          "name": "promotionId",
          "type": "string"
        },
        {
          "internalType": "string",
          "name": "creative",
          "type": "string"
        },
        {
          "internalType": "string",
          "name": "title",
          "type": "string"
        },
        {
          "internalType": "string",
          "name": "subtitle",
          "type": "string"
        },
        {
          "internalType": "bool",
          "name": "promotionActive",
          "type": "bool"
        }
      ],
      "stateMutability": "view",
      "type": "function"
    },
    {
      "inputs": [],
      "name": "getPromotionCount",
      "outputs": [
        {
          "internalType": "uint256",
          "name": "",
          "type": "uint256"
        }
      ],
      "stateMutability": "view",
      "type": "function"
    },
    {
      "inputs": [
        {
          "internalType": "string",
          "name": "promotionId",
          "type": "string"
        }
      ],
      "name": "getPromotionStats",
      "outputs": [
        {
          "internalType": "uint256",
          "name": "impressions",
          "type": "uint256"
        },
        {
          "internalType": "uint256",
          "name": "clicks",
          "type": "uint256"
        },
        {
          "internalType": "uint256",
          "name": "totalPayout",
          "type": "uint256"
        }
      ],
      "stateMutability": "view",
      "type": "function"
    },
    {
      "inputs": [],
      "name": "impressionRate",
      "outputs": [
        {
          "internalType": "uint256",
          "name": "",
          "type": "uint256"
        }
      ],
      "stateMutability": "view",
      "type": "function"
    },
    {
      "inputs": [],
      "name": "landingUrl",
      "outputs": [
        {
          "internalType": "string",
          "name": "",
          "type": "string"
        }
      ],
      "stateMutability": "view",
      "type": "function"
    },
    {
      "inputs": [
        {
          "internalType": "uint256",
          "name": "",
          "type": "uint256"
        }
      ],
      "name": "log",
      "outputs": [
        {
          "internalType": "string",
          "name": "eventType",
          "type": "string"
        },
        {
          "internalType": "string",
          "name": "promotionId",
          "type": "string"
        },
        {
          "internalType": "address",
          "name": "publisher",
          "type": "address"
        },
        {
          "internalType": "address",
          "name": "user",
          "type": "address"
        },
        {
          "internalType": "uint256",
          "name": "timestamp",
          "type": "uint256"
        },
        {
          "internalType": "uint256",
          "name": "payout",
          "type": "uint256"
        }
      ],
      "stateMutability": "view",
      "type": "function"
    },
    {
      "inputs": [],
      "name": "pacing",
      "outputs": [
        {
          "internalType": "uint256",
          "name": "",
          "type": "uint256"
        }
      ],
      "stateMutability": "view",
      "type": "function"
    },
    {
      "inputs": [],
      "name": "pause",
      "outputs": [],
      "stateMutability": "nonpayable",
      "type": "function"
    },
    {
      "inputs": [],
      "name": "play",
      "outputs": [
        {
          "internalType": "string",
          "name": "_brand",
          "type": "string"
        },
        {
          "internalType": "string",
          "name": "_landingUrl",
          "type": "string"
        },
        {
          "internalType": "uint256",
          "name": "promotionCount",
          "type": "uint256"
        },
        {
          "internalType": "bool",
          "name": "_active",
          "type": "bool"
        }
      ],
      "stateMutability": "view",
      "type": "function"
    },
    {
      "inputs": [
        {
          "internalType": "uint256",
          "name": "",
          "type": "uint256"
        }
      ],
      "name": "promotions",
      "outputs": [
        {
          "internalType": "string",
          "name": "promotionId",
          "type": "string"
        },
        {
          "internalType": "string",
          "name": "creative",
          "type": "string"
        },
        {
          "internalType": "string",
          "name": "title",
          "type": "string"
        },
        {
          "internalType": "string",
          "name": "subtitle",
          "type": "string"
        },
        {
          "internalType": "bool",
          "name": "active",
          "type": "bool"
        }
      ],
      "stateMutability": "view",
      "type": "function"
    },
    {
      "inputs": [
        {
          "internalType": "string",
          "name": "eventType",
          "type": "string"
        },
        {
          "internalType": "string",
          "name": "promotionId",
          "type": "string"
        },
        {
          "internalType": "address",
          "name": "publisher",
          "type": "address"
        },
        {
          "internalType": "address",
          "name": "user",
          "type": "address"
        }
      ],
      "name": "record",
      "outputs": [],
      "stateMutability": "nonpayable",
      "type": "function"
    },
    {
      "inputs": [
        {
          "internalType": "string[]",
          "name": "eventTypes",
          "type": "string[]"
        },
        {
          "internalType": "string[]",
          "name": "promotionIds",
          "type": "string[]"
        },
        {
          "internalType": "address[]",
          "name": "publishers",
          "type": "address[]"
        },
        {
          "internalType": "address[]",
          "name": "users",
          "type": "address[]"
        }
      ],
      "name": "recordBatch",
      "outputs": [],
      "stateMutability": "nonpayable",
      "type": "function"
    },
    {
      "inputs": [
        {
          "internalType": "string[]",
          "name": "eventTypes",
          "type": "string[]"
        },
        {
          "internalType": "string[]",
          "name": "promotionIds",
          "type": "string[]"
        },
        {
          "internalType": "address[]",
          "name": "publishers",
          "type": "address[]"
        },
        {
          "internalType": "address[]",
          "name": "users",
          "type": "address[]"
        },
        {
          "internalType": "bytes32[]",
          "name": "hashes",
          "type": "bytes32[]"
        },
        {
          "internalType": "bytes32[]",
          "name": "previousHashes",
          "type": "bytes32[]"
        }
      ],
      "name": "recordWithHashChain",
      "outputs": [],
      "stateMutability": "nonpayable",
      "type": "function"
    },
    {
      "inputs": [],
      "name": "report",
      "outputs": [
        {
          "internalType": "uint256",
          "name": "totalEvents",
          "type": "uint256"
        },
        {
          "internalType": "uint256",
          "name": "totalSpent",
          "type": "uint256"
        },
        {
          "internalType": "uint256",
          "name": "remainingBudget",
          "type": "uint256"
        },
        {
          "internalType": "uint256",
          "name": "timeElapsed",
          "type": "uint256"
        },
        {
          "internalType": "bool",
          "name": "campaignActive",
          "type": "bool"
        },
        {
          "internalType": "uint256",
          "name": "promotionCount",
          "type": "uint256"
        }
      ],
      "stateMutability": "view",
      "type": "function"
    },
    {
      "inputs": [],
      "name": "resume",
      "outputs": [],
      "stateMutability": "nonpayable",
      "type": "function"
    },
    {
      "inputs": [],
      "name": "spent",
      "outputs": [
        {
          "internalType": "uint256",
          "name": "",
          "type": "uint256"
        }
      ],
      "stateMutability": "view",
      "type": "function"
    },
    {
      "inputs": [],
      "name": "sponsor",
      "outputs": [
        {
          "internalType": "address",
          "name": "",
          "type": "address"
        }
      ],
      "stateMutability": "view",
      "type": "function"
    },
    {
      "inputs": [],
      "name": "startTime",
      "outputs": [
        {
          "internalType": "uint256",
          "name": "",
          "type": "uint256"
        }
      ],
      "stateMutability": "view",
      "type": "function"
    },
    {
      "inputs": [
        {
          "internalType": "string",
          "name": "ipfsCID",
          "type": "string"
        },
        {
          "internalType": "uint256",
          "name": "impressions",
          "type": "uint256"
        },
        {
          "internalType": "uint256",
          "name": "clicks",
          "type": "uint256"
        },
        {
          "internalType": "uint256",
          "name": "reach",
          "type": "uint256"
        },
        {
          "internalType": "bytes32",
          "name": "lastHash",
          "type": "bytes32"
        }
      ],
      "name": "submitBatch",
      "outputs": [],
      "stateMutability": "nonpayable",
      "type": "function"
    },
    {
      "inputs": [
        {
          "internalType": "uint256",
          "name": "index",
          "type": "uint256"
        }
      ],
      "name": "togglePromotion",
      "outputs": [],
      "stateMutability": "nonpayable",
      "type": "function"
    },
    {
      "inputs": [
        {
          "internalType": "uint256",
          "name": "index",
          "type": "uint256"
        },
        {
          "internalType": "string",
          "name": "_creative",
          "type": "string"
        },
        {
          "internalType": "string",
          "name": "_title",
          "type": "string"
        },
        {
          "internalType": "string",
          "name": "_subtitle",
          "type": "string"
        }
      ],
      "name": "updatePromotion",
      "outputs": [],
      "stateMutability": "nonpayable",
      "type": "function"
    }
  ],
  "bytecode": "0x608060405234801561000f575f5ffd5b5060405161361638038061361683398101604081905261002e916101b2565b5f80546001600160a01b038a166001600160a01b0319918216179091556001805490911633179055600261006288826102fc565b50600361006f87826102fc565b5060048590556005849055600661008684826102fc565b50600c829055600d8190556007805460ff191660011790555f6008554260095560405133906001600160a01b038a16907fab1f4669fd839e6b25aaf40386e988a4140f86128dc9937ac03c85c0c3bf0f36906100e5908a908c906103e4565b60405180910390a35050505050505050610411565b80516001600160a01b0381168114610110575f5ffd5b919050565b634e487b7160e01b5f52604160045260245ffd5b5f82601f830112610138575f5ffd5b81516001600160401b0381111561015157610151610115565b604051601f8201601f19908116603f011681016001600160401b038111828210171561017f5761017f610115565b604052818152838201602001851015610196575f5ffd5b8160208501602083015e5f918101602001919091529392505050565b5f5f5f5f5f5f5f5f610100898b0312156101ca575f5ffd5b6101d3896100fa565b60208a01519098506001600160401b038111156101ee575f5ffd5b6101fa8b828c01610129565b60408b015190985090506001600160401b03811115610217575f5ffd5b6102238b828c01610129565b60608b015160808c015160a08d0151929950909750955090506001600160401b0381111561024f575f5ffd5b61025b8b828c01610129565b60c08b015160e0909b0151999c989b509699959894979350505050565b600181811c9082168061028c57607f821691505b6020821081036102aa57634e487b7160e01b5f52602260045260245ffd5b50919050565b601f8211156102f757805f5260205f20601f840160051c810160208510156102d55750805b601f840160051c820191505b818110156102f4575f81556001016102e1565b50505b505050565b81516001600160401b0381111561031557610315610115565b610329816103238454610278565b846102b0565b6020601f82116001811461035b575f83156103445750848201515b5f19600385901b1c1916600184901b1784556102f4565b5f84815260208120601f198516915b8281101561038a578785015182556020948501946001909201910161036a565b50848210156103a757868401515f19600387901b60f8161c191681555b50505050600190811b01905550565b5f81518084528060208401602086015e5f602082860101526020601f19601f83011685010191505092915050565b604081525f6103f660408301856103b6565b828103602084015261040881856103b6565b95945050505050565b6131f88061041e5f395ff3fe608060405234801561000f575f5ffd5b5060043610610208575f3560e01c80637ab71b7a1161011f578063c74c9db9116100a9578063de24a5f611610079578063de24a5f614610473578063ea8a1af01461047b578063ed01bf2914610483578063f5ff5c761461048c578063f82c50f11461049f575f5ffd5b8063c74c9db914610446578063cc15255814610459578063d9e48f5c14610462578063dad906111461046a575f5ffd5b8063953cf4fc116100ef578063953cf4fc146103cc5780639da8659a146103df578063a65e2cfd1461040d578063a92d8dfb14610420578063c4a3690314610433575f5ffd5b80637ab71b7a1461039b5780638456cb59146103a45780638ed5b0fc146103ac57806393e84cd9146103b4575f5ffd5b80632d9fff01116101a0578063663516a111610170578063663516a11461032857806367810dfe146103305780636d1884e01461034357806377c936621461036857806378e9792514610392575f5ffd5b80632d9fff01146102e557806331473813146102ed57806344cbb129146103005780635fd2d52214610313575f5ffd5b806310d16e4c116101db57806310d16e4c1461026257806314fdecca146102775780631b89fc421461029b5780632606a10b146102ae575f5ffd5b806302fb0c5e1461020c57806304118d5e1461022e578063046f7da2146102455780630ce7f9741461024f575b5f5ffd5b6007546102199060ff1681565b60405190151581526020015b60405180910390f35b610237600d5481565b604051908152602001610225565b61024d6104b2565b005b61024d61025d3660046125f4565b61059d565b61026a6106f4565b6040516102259190612679565b61028a610285366004612692565b610780565b6040516102259594939291906126a9565b61024d6102a9366004612692565b610a4e565b6102b6610b7c565b6040805196875260208701959095529385019290925260608401521515608083015260a082015260c001610225565b61026a610c02565b61024d6102fb366004612891565b610c0f565b61024d61030e366004612997565b610d7f565b61031b610e88565b6040516102259190612a2c565b610237601481565b61028a61033e366004612692565b610f99565b610356610351366004612692565b6111f5565b60405161022596959493929190612a6e565b5f5461037a906001600160a01b031681565b6040516001600160a01b039091168152602001610225565b61023760095481565b61023760085481565b61024d6113dc565b61026a611426565b6103bc611433565b6040516102259493929190612ac1565b61024d6103da366004612afe565b611573565b6103f26103ed366004612b4d565b6117b0565b60408051938452602084019290925290820152606001610225565b61024d61041b366004612b86565b6119aa565b61024d61042e366004612ba6565b611a87565b61024d610441366004612c4f565b611e05565b61024d610454366004612cf8565b611ed8565b61023760055481565b600b54610237565b610237600c5481565b600a54610237565b61024d612301565b61023760045481565b60015461037a906001600160a01b031681565b6103566104ad366004612692565b6123e3565b5f546001600160a01b03163314806104d457506001546001600160a01b031633145b6104f95760405162461bcd60e51b81526004016104f090612d7b565b60405180910390fd5b6004546008541061053f5760405162461bcd60e51b815260206004820152601060248201526f109d5919d95d08195e1a185d5cdd195960821b60448201526064016104f0565b600a5461058e5760405162461bcd60e51b815260206004820152601760248201527f4e6f2070726f6d6f74696f6e7320617661696c61626c6500000000000000000060448201526064016104f0565b6007805460ff19166001179055565b60075460ff166105bf5760405162461bcd60e51b81526004016104f090612da3565b5f8551116106035760405162461bcd60e51b815260206004820152601160248201527012541194c810d251081c995c5d5a5c9959607a1b60448201526064016104f0565b5f600d54846106129190612de7565b600c5461061f9087612de7565b6106299190612e04565b90506004548160085461063c9190612e04565b111561067c5760405162461bcd60e51b815260206004820152600f60248201526e109d5919d95d08195e18d959591959608a1b60448201526064016104f0565b8060085f82825461068d9190612e04565b909155505060405133907f1fdbceb1d9e59572b2fbcfba992a61230bb657d80039aced6e8f338f08eeb7e5906106ce90899089908990899089904290612e17565b60405180910390a2600454600854106106ec576007805460ff191690555b505050505050565b6006805461070190612e52565b80601f016020809104026020016040519081016040528092919081815260200182805461072d90612e52565b80156107785780601f1061074f57610100808354040283529160200191610778565b820191905f5260205f20905b81548152906001019060200180831161075b57829003601f168201915b505050505081565b6060806060805f600a8054905086106107ab5760405162461bcd60e51b81526004016104f090612e8a565b5f600a87815481106107bf576107bf612eb7565b905f5260205f2090600502016040518060a00160405290815f820180546107e590612e52565b80601f016020809104026020016040519081016040528092919081815260200182805461081190612e52565b801561085c5780601f106108335761010080835404028352916020019161085c565b820191905f5260205f20905b81548152906001019060200180831161083f57829003601f168201915b5050505050815260200160018201805461087590612e52565b80601f01602080910402602001604051908101604052809291908181526020018280546108a190612e52565b80156108ec5780601f106108c3576101008083540402835291602001916108ec565b820191905f5260205f20905b8154815290600101906020018083116108cf57829003601f168201915b5050505050815260200160028201805461090590612e52565b80601f016020809104026020016040519081016040528092919081815260200182805461093190612e52565b801561097c5780601f106109535761010080835404028352916020019161097c565b820191905f5260205f20905b81548152906001019060200180831161095f57829003601f168201915b5050505050815260200160038201805461099590612e52565b80601f01602080910402602001604051908101604052809291908181526020018280546109c190612e52565b8015610a0c5780601f106109e357610100808354040283529160200191610a0c565b820191905f5260205f20905b8154815290600101906020018083116109ef57829003601f168201915b50505091835250506004919091015460ff16151560209182015281519082015160408301516060840151608090940151929b919a509850919650945092505050565b5f546001600160a01b0316331480610a7057506001546001600160a01b031633145b610a8c5760405162461bcd60e51b81526004016104f090612d7b565b600a548110610aad5760405162461bcd60e51b81526004016104f090612e8a565b600a8181548110610ac057610ac0612eb7565b905f5260205f2090600502016004015f9054906101000a900460ff1615600a8281548110610af057610af0612eb7565b905f5260205f2090600502016004015f6101000a81548160ff021916908315150217905550807f1e96dd8b2f862c8649c433d7e2856deacd898e373e4b1a1ebb783d72ecdebb97600a8381548110610b4a57610b4a612eb7565b5f918252602090912060046005909202010154604051610b719160ff161515815260200190565b60405180910390a250565b5f8054819081908190819081906001600160a01b0316331480610ba957506001546001600160a01b031633145b610bc55760405162461bcd60e51b81526004016104f090612d7b565b600b54600854600454610bd9908290612ecb565b600954610be69042612ecb565b600754600a54949b939a50919850965060ff1694509092509050565b6003805461070190612e52565b60075460ff16610c315760405162461bcd60e51b81526004016104f090612da3565b84518651148015610c43575083518551145b8015610c50575082518451145b8015610c5d575081518351145b8015610c6a575080518251145b610c865760405162461bcd60e51b81526004016104f090612ede565b5f5b8651811015610d7657610d01878281518110610ca657610ca6612eb7565b6020026020010151878381518110610cc057610cc0612eb7565b6020026020010151878481518110610cda57610cda612eb7565b6020026020010151878581518110610cf457610cf4612eb7565b6020026020010151611ed8565b818181518110610d1357610d13612eb7565b6020026020010151838281518110610d2d57610d2d612eb7565b60200260200101517f79b79c3b1c5f8beb3bb3ba4b1a6982732708f0891684cfb4f33752a50bd238db42604051610d6691815260200190565b60405180910390a3600101610c88565b50505050505050565b5f546001600160a01b0316331480610da157506001546001600160a01b031633145b610dbd5760405162461bcd60e51b81526004016104f090612d7b565b600a548410610dde5760405162461bcd60e51b81526004016104f090612e8a565b5f600a8581548110610df257610df2612eb7565b905f5260205f20906005020190505f84511115610e195760018101610e178582612f56565b505b825115610e305760028101610e2e8482612f56565b505b815115610e475760038101610e458382612f56565b505b847f8b2db59027f67e9a81f525e979c83a74aeee1e0a7bd52e0521a44193695af6b8825f01604051610e799190613010565b60405180910390a25050505050565b60605f805b600a54811015610edb57600a8181548110610eaa57610eaa612eb7565b5f91825260209091206004600590920201015460ff1615610ed35781610ecf81613097565b9250505b600101610e8d565b505f816001600160401b03811115610ef557610ef5612545565b604051908082528060200260200182016040528015610f1e578160200160208202803683370190505b5090505f805b600a54811015610f9057600a8181548110610f4157610f41612eb7565b5f91825260209091206004600590920201015460ff1615610f885780838381518110610f6f57610f6f612eb7565b602090810291909101015281610f8481613097565b9250505b600101610f24565b50909392505050565b600a8181548110610fa8575f80fd5b905f5260205f2090600502015f91509050805f018054610fc790612e52565b80601f0160208091040260200160405190810160405280929190818152602001828054610ff390612e52565b801561103e5780601f106110155761010080835404028352916020019161103e565b820191905f5260205f20905b81548152906001019060200180831161102157829003601f168201915b50505050509080600101805461105390612e52565b80601f016020809104026020016040519081016040528092919081815260200182805461107f90612e52565b80156110ca5780601f106110a1576101008083540402835291602001916110ca565b820191905f5260205f20905b8154815290600101906020018083116110ad57829003601f168201915b5050505050908060020180546110df90612e52565b80601f016020809104026020016040519081016040528092919081815260200182805461110b90612e52565b80156111565780601f1061112d57610100808354040283529160200191611156565b820191905f5260205f20905b81548152906001019060200180831161113957829003601f168201915b50505050509080600301805461116b90612e52565b80601f016020809104026020016040519081016040528092919081815260200182805461119790612e52565b80156111e25780601f106111b9576101008083540402835291602001916111e2565b820191905f5260205f20905b8154815290600101906020018083116111c557829003601f168201915b5050506004909301549192505060ff1685565b6060805f5f5f5f600b8054905087106112205760405162461bcd60e51b81526004016104f090612e8a565b5f600b888154811061123457611234612eb7565b905f5260205f2090600602016040518060c00160405290815f8201805461125a90612e52565b80601f016020809104026020016040519081016040528092919081815260200182805461128690612e52565b80156112d15780601f106112a8576101008083540402835291602001916112d1565b820191905f5260205f20905b8154815290600101906020018083116112b457829003601f168201915b505050505081526020016001820180546112ea90612e52565b80601f016020809104026020016040519081016040528092919081815260200182805461131690612e52565b80156113615780601f1061133857610100808354040283529160200191611361565b820191905f5260205f20905b81548152906001019060200180831161134457829003601f168201915b505050918352505060028201546001600160a01b039081166020808401919091526003840154909116604080840191909152600484015460608085019190915260059094015460809384015284519185015190850151938501519285015160a090950151919d909c50929a5090985091965090945092505050565b5f546001600160a01b03163314806113fe57506001546001600160a01b031633145b61141a5760405162461bcd60e51b81526004016104f090612d7b565b6007805460ff19169055565b6002805461070190612e52565b6060805f5f60036006600a8054905060075f9054906101000a900460ff1683805461145d90612e52565b80601f016020809104026020016040519081016040528092919081815260200182805461148990612e52565b80156114d45780601f106114ab576101008083540402835291602001916114d4565b820191905f5260205f20905b8154815290600101906020018083116114b757829003601f168201915b505050505093508280546114e790612e52565b80601f016020809104026020016040519081016040528092919081815260200182805461151390612e52565b801561155e5780601f106115355761010080835404028352916020019161155e565b820191905f5260205f20905b81548152906001019060200180831161154157829003601f168201915b50505050509250935093509350935090919293565b5f546001600160a01b031633148061159557506001546001600160a01b031633145b6115b15760405162461bcd60e51b81526004016104f090612d7b565b600a546014116116035760405162461bcd60e51b815260206004820152601a60248201527f4d6178696d756d2070726f6d6f74696f6e73207265616368656400000000000060448201526064016104f0565b5f8451116116235760405162461bcd60e51b81526004016104f0906130af565b5f8351116116675760405162461bcd60e51b815260206004820152601160248201527010dc99585d1a5d99481c995c5d5a5c9959607a1b60448201526064016104f0565b5f8251116116a85760405162461bcd60e51b815260206004820152600e60248201526d151a5d1b19481c995c5d5a5c995960921b60448201526064016104f0565b6040805160a0810182528581526020810185905290810183905260608101829052600160808201819052600a805491820181555f52815160059091027fc65a7bb8d6351c1cf70c95a316cc6a92839c986682d98bc35f958f4883f9d2a8019081906117139082612f56565b50602082015160018201906117289082612f56565b506040820151600282019061173d9082612f56565b50606082015160038201906117529082612f56565b50608091909101516004909101805460ff19169115159190911790556040517f1b7011a3ca89cdf8aa0a2d11d0716184489852801127c3b6563170ead65d6c17906117a2908690869086906130de565b60405180910390a150505050565b5f8054819081906001600160a01b03163314806117d757506001546001600160a01b031633145b6117f35760405162461bcd60e51b81526004016104f090612d7b565b5f8080805b600b5481101561199c578780519060200120600b828154811061181d5761181d612eb7565b905f5260205f2090600602016001016040516118399190613120565b6040518091039020036119945760408051808201909152600a81526934b6b83932b9b9b4b7b760b11b602090910152600b80547f2afaffc531d7ea051f03fd0753abd6048af8e39960dde8fa21a01ab8b19be40b91908390811061189f5761189f612eb7565b905f5260205f2090600602015f016040516118ba9190613120565b6040518091039020036118d957836118d181613097565b945050611963565b604080518082019091526005815264636c69636b60d81b602090910152600b80547ff951a0ddf328b260ac5f48f21cc51687d0414317e8a5a8ea44f05aebb4c440e991908390811061192d5761192d612eb7565b905f5260205f2090600602015f016040516119489190613120565b604051809103902003611963578261195f81613097565b9350505b600b818154811061197657611976612eb7565b905f5260205f20906006020160050154826119919190612e04565b91505b6001016117f8565b509196909550909350915050565b5f546001600160a01b031633146119f25760405162461bcd60e51b815260206004820152600c60248201526b27b7363c9039b837b739b7b960a11b60448201526064016104f0565b8160045f828254611a039190612e04565b90915550508015611a145760058190555b60075460ff16158015611a2a5750600454600854105b15611a3d576007805460ff191660011790555b7f1f11e5c3be4bf69989b85ccb008e2c0ea81abcb57d1a896db5422a92b1cfa7db600454600554604051611a7b929190918252602082015260400190565b60405180910390a15050565b5f546001600160a01b0316331480611aa957506001546001600160a01b031633145b611ac55760405162461bcd60e51b81526004016104f090612d7b565b82518451148015611ad7575081518351145b8015611ae4575080518251145b611b005760405162461bcd60e51b81526004016104f090612ede565b8351600a54601491611b1191612e04565b1115611b5f5760405162461bcd60e51b815260206004820152601f60248201527f576f756c6420657863656564206d6178696d756d2070726f6d6f74696f6e730060448201526064016104f0565b5f5b8451811015611dfe575f858281518110611b7d57611b7d612eb7565b60200260200101515111611ba35760405162461bcd60e51b81526004016104f0906130af565b5f848281518110611bb657611bb6612eb7565b60200260200101515111611c005760405162461bcd60e51b815260206004820152601160248201527010dc99585d1a5d99481c995c5d5a5c9959607a1b60448201526064016104f0565b5f838281518110611c1357611c13612eb7565b60200260200101515111611c5a5760405162461bcd60e51b815260206004820152600e60248201526d151a5d1b19481c995c5d5a5c995960921b60448201526064016104f0565b600a6040518060a00160405280878481518110611c7957611c79612eb7565b60200260200101518152602001868481518110611c9857611c98612eb7565b60200260200101518152602001858481518110611cb757611cb7612eb7565b60200260200101518152602001848481518110611cd657611cd6612eb7565b60209081029190910181015182526001918101829052835491820184555f9384529092208151919260050201908190611d0f9082612f56565b5060208201516001820190611d249082612f56565b5060408201516002820190611d399082612f56565b5060608201516003820190611d4e9082612f56565b506080820151816004015f6101000a81548160ff02191690831515021790555050507f1b7011a3ca89cdf8aa0a2d11d0716184489852801127c3b6563170ead65d6c17858281518110611da357611da3612eb7565b6020026020010151858381518110611dbd57611dbd612eb7565b6020026020010151858481518110611dd757611dd7612eb7565b6020026020010151604051611dee939291906130de565b60405180910390a1600101611b61565b5050505050565b60075460ff16611e275760405162461bcd60e51b81526004016104f090612da3565b82518451148015611e39575081518351145b8015611e46575080518251145b611e625760405162461bcd60e51b81526004016104f090612ede565b5f5b8451811015611dfe57611ed0858281518110611e8257611e82612eb7565b6020026020010151858381518110611e9c57611e9c612eb7565b6020026020010151858481518110611eb657611eb6612eb7565b6020026020010151858581518110610cf457610cf4612eb7565b600101611e64565b60075460ff16611efa5760405162461bcd60e51b81526004016104f090612da3565b6001600160a01b038216611f505760405162461bcd60e51b815260206004820152601960248201527f496e76616c6964207075626c697368657220616464726573730000000000000060448201526064016104f0565b5f835111611f705760405162461bcd60e51b81526004016104f0906130af565b5f805b600a54811015612046578480519060200120600a8281548110611f9857611f98612eb7565b905f5260205f2090600502015f01604051611fb39190613120565b60405180910390200361203e57600a8181548110611fd357611fd3612eb7565b5f91825260209091206004600590920201015460ff166120355760405162461bcd60e51b815260206004820152601760248201527f50726f6d6f74696f6e206973206e6f742061637469766500000000000000000060448201526064016104f0565b60019150612046565b600101611f73565b508061208a5760405162461bcd60e51b8152602060048201526013602482015272141c9bdb5bdd1a5bdb881b9bdd08199bdd5b99606a1b60448201526064016104f0565b60408051808201909152600a81526934b6b83932b9b9b4b7b760b11b6020918201528551908601205f907fd505003ace2815fae0fc02f8ac5429fb75071c669f221705de5fe5474e641bf5016120e35750600c54612172565b604080518082019091526005815264636c69636b60d81b6020918201528651908701207f06ae5f220cd74d9f53a0b70de33ae9782fbebce8175a5715bb0fa5144b3bbf17016121355750600d54612172565b60405162461bcd60e51b8152602060048201526012602482015271496e76616c6964206576656e74207479706560701b60448201526064016104f0565b600454816008546121839190612e04565b11156121c35760405162461bcd60e51b815260206004820152600f60248201526e109d5919d95d08195e18d959591959608a1b60448201526064016104f0565b6040805160c081018252878152602081018790526001600160a01b0380871692820192909252908416606082015242608082015260a08101829052600b80546001810182555f91909152815160069091027f0175b7a638427703f0dbe7bb9bbf987a2551717b34e79f33b5b1008d1fa01db9019081906122439082612f56565b50602082015160018201906122589082612f56565b5060408201516002820180546001600160a01b039283166001600160a01b03199182161790915560608401516003840180549190931691161790556080820151600482015560a090910151600590910155600880548291905f906122bd908490612e04565b92505081905550836001600160a01b03167f254b450b58541d40213020969e7fd2e16dc87a844e3e48054e915be72e9ebc9c8787846040516106ce9392919061318d565b5f546001600160a01b031633146123495760405162461bcd60e51b815260206004820152600c60248201526b27b7363c9039b837b739b7b960a11b60448201526064016104f0565b60075460ff1661238f5760405162461bcd60e51b8152602060048201526011602482015270105b1c9958591e4818d85b98d95b1b1959607a1b60448201526064016104f0565b5f6008546004546123a09190612ecb565b6007805460ff191690556040518181529091507f403b6718db13878ac16c27decb08f09d3a10f116c7c25af575ff5bfbc11ae9e69060200160405180910390a150565b600b81815481106123f2575f80fd5b905f5260205f2090600602015f91509050805f01805461241190612e52565b80601f016020809104026020016040519081016040528092919081815260200182805461243d90612e52565b80156124885780601f1061245f57610100808354040283529160200191612488565b820191905f5260205f20905b81548152906001019060200180831161246b57829003601f168201915b50505050509080600101805461249d90612e52565b80601f01602080910402602001604051908101604052809291908181526020018280546124c990612e52565b80156125145780601f106124eb57610100808354040283529160200191612514565b820191905f5260205f20905b8154815290600101906020018083116124f757829003601f168201915b5050505060028301546003840154600485015460059095015493946001600160a01b03928316949290911692509086565b634e487b7160e01b5f52604160045260245ffd5b604051601f8201601f191681016001600160401b038111828210171561258157612581612545565b604052919050565b5f82601f830112612598575f5ffd5b81356001600160401b038111156125b1576125b1612545565b6125c4601f8201601f1916602001612559565b8181528460208386010111156125d8575f5ffd5b816020850160208301375f918101602001919091529392505050565b5f5f5f5f5f60a08688031215612608575f5ffd5b85356001600160401b0381111561261d575f5ffd5b61262988828901612589565b9860208801359850604088013597606081013597506080013595509350505050565b5f81518084528060208401602086015e5f602082860101526020601f19601f83011685010191505092915050565b602081525f61268b602083018461264b565b9392505050565b5f602082840312156126a2575f5ffd5b5035919050565b60a081525f6126bb60a083018861264b565b82810360208401526126cd818861264b565b905082810360408401526126e1818761264b565b905082810360608401526126f5818661264b565b91505082151560808301529695505050505050565b5f6001600160401b0382111561272257612722612545565b5060051b60200190565b5f82601f83011261273b575f5ffd5b813561274e6127498261270a565b612559565b8082825260208201915060208360051b86010192508583111561276f575f5ffd5b602085015b838110156127af5780356001600160401b03811115612791575f5ffd5b6127a0886020838a0101612589565b84525060209283019201612774565b5095945050505050565b80356001600160a01b03811681146127cf575f5ffd5b919050565b5f82601f8301126127e3575f5ffd5b81356127f16127498261270a565b8082825260208201915060208360051b860101925085831115612812575f5ffd5b602085015b838110156127af57612828816127b9565b835260209283019201612817565b5f82601f830112612845575f5ffd5b81356128536127498261270a565b8082825260208201915060208360051b860101925085831115612874575f5ffd5b602085015b838110156127af578035835260209283019201612879565b5f5f5f5f5f5f60c087890312156128a6575f5ffd5b86356001600160401b038111156128bb575f5ffd5b6128c789828a0161272c565b96505060208701356001600160401b038111156128e2575f5ffd5b6128ee89828a0161272c565b95505060408701356001600160401b03811115612909575f5ffd5b61291589828a016127d4565b94505060608701356001600160401b03811115612930575f5ffd5b61293c89828a016127d4565b93505060808701356001600160401b03811115612957575f5ffd5b61296389828a01612836565b92505060a08701356001600160401b0381111561297e575f5ffd5b61298a89828a01612836565b9150509295509295509295565b5f5f5f5f608085870312156129aa575f5ffd5b8435935060208501356001600160401b038111156129c6575f5ffd5b6129d287828801612589565b93505060408501356001600160401b038111156129ed575f5ffd5b6129f987828801612589565b92505060608501356001600160401b03811115612a14575f5ffd5b612a2087828801612589565b91505092959194509250565b602080825282518282018190525f918401906040840190835b81811015612a63578351835260209384019390920191600101612a45565b509095945050505050565b60c081525f612a8060c083018961264b565b8281036020840152612a92818961264b565b6001600160a01b03978816604085015295909616606083015250608081019290925260a0909101529392505050565b608081525f612ad3608083018761264b565b8281036020840152612ae5818761264b565b6040840195909552505090151560609091015292915050565b5f5f5f5f60808587031215612b11575f5ffd5b84356001600160401b03811115612b26575f5ffd5b612b3287828801612589565b94505060208501356001600160401b038111156129c6575f5ffd5b5f60208284031215612b5d575f5ffd5b81356001600160401b03811115612b72575f5ffd5b612b7e84828501612589565b949350505050565b5f5f60408385031215612b97575f5ffd5b50508035926020909101359150565b5f5f5f5f60808587031215612bb9575f5ffd5b84356001600160401b03811115612bce575f5ffd5b612bda8782880161272c565b94505060208501356001600160401b03811115612bf5575f5ffd5b612c018782880161272c565b93505060408501356001600160401b03811115612c1c575f5ffd5b612c288782880161272c565b92505060608501356001600160401b03811115612c43575f5ffd5b612a208782880161272c565b5f5f5f5f60808587031215612c62575f5ffd5b84356001600160401b03811115612c77575f5ffd5b612c838782880161272c565b94505060208501356001600160401b03811115612c9e575f5ffd5b612caa8782880161272c565b93505060408501356001600160401b03811115612cc5575f5ffd5b612cd1878288016127d4565b92505060608501356001600160401b03811115612cec575f5ffd5b612a20878288016127d4565b5f5f5f5f60808587031215612d0b575f5ffd5b84356001600160401b03811115612d20575f5ffd5b612d2c87828801612589565b94505060208501356001600160401b03811115612d47575f5ffd5b612d5387828801612589565b935050612d62604086016127b9565b9150612d70606086016127b9565b905092959194509250565b6020808252600e908201526d139bdd08185d5d1a1bdc9a5e995960921b604082015260600190565b60208082526016908201527543616d706169676e206973206e6f742061637469766560501b604082015260600190565b634e487b7160e01b5f52601160045260245ffd5b8082028115828204841417612dfe57612dfe612dd3565b92915050565b80820180821115612dfe57612dfe612dd3565b60c081525f612e2960c083018961264b565b60208301979097525060408101949094526060840192909252608083015260a090910152919050565b600181811c90821680612e6657607f821691505b602082108103612e8457634e487b7160e01b5f52602260045260245ffd5b50919050565b602080825260139082015272496e646578206f7574206f6620626f756e647360681b604082015260600190565b634e487b7160e01b5f52603260045260245ffd5b81810381811115612dfe57612dfe612dd3565b602080825260159082015274082e4e4c2f240d8cadccee8d040dad2e6dac2e8c6d605b1b604082015260600190565b601f821115612f5157805f5260205f20601f840160051c81016020851015612f325750805b601f840160051c820191505b81811015611dfe575f8155600101612f3e565b505050565b81516001600160401b03811115612f6f57612f6f612545565b612f8381612f7d8454612e52565b84612f0d565b6020601f821160018114612fb5575f8315612f9e5750848201515b5f19600385901b1c1916600184901b178455611dfe565b5f84815260208120601f198516915b82811015612fe45787850151825560209485019460019092019101612fc4565b508482101561300157868401515f19600387901b60f8161c191681555b50505050600190811b01905550565b602081525f5f835461302181612e52565b806020860152600182165f811461303f576001811461305b5761308c565b60ff1983166040870152604082151560051b870101935061308c565b865f5260205f205f5b8381101561308357815488820160400152600190910190602001613064565b87016040019450505b509195945050505050565b5f600182016130a8576130a8612dd3565b5060010190565b602080825260159082015274141c9bdb5bdd1a5bdb881251081c995c5d5a5c9959605a1b604082015260600190565b606081525f6130f0606083018661264b565b8281036020840152613102818661264b565b90508281036040840152613116818561264b565b9695505050505050565b5f5f835461312d81612e52565b60018216801561314457600181146131595761308c565b60ff198316865281151582028601935061308c565b865f5260205f205f5b8381101561317e57815488820152600190910190602001613162565b50505093909301949350505050565b606081525f61319f606083018661264b565b82810360208401526131b1818661264b565b91505082604083015294935050505056fea264697066735822122087d2a0bbc44b769fa5687805ec8186aa944b4ba193ba83b292f3efd5e520cbf464736f6c634300081b0033",
  "linkReferences": {},
  "deployedLinkReferences": {},
  "immutableReferences": {},
  "inputSourceName": "project/contracts/CampaignWallet.sol",
  "buildInfoId": "solc-0_8_27-b694d87e8825bc731605aebbfa746ee459d2e179"
}