{
  "_format": "hh-sol-artifact-1",
  "contractName": "CampaignWallet",
  "sourceName": "contracts/CampaignWallet.sol",
  "abi": [
    {
      "inputs": [
        {
          "internalType": "address",
          "name": "_tokenAddress",
          "type": "address"
        },
        {
          "internalType": "address",
          "name": "_sponsor",
          "type": "address"
        },
        {
          "internalType": "address",
          "name": "_admin",
          "type": "address"
        },
        {
          "internalType": "string",
          "name": "_campaignId",
          "type": "string"
        },
        {
          "internalType": "uint256",
          "name": "_budget",
          "type": "uint256"
        },
        {
          "internalType": "uint256",
          "name": "_impressionRate",
          "type": "uint256"
        },
        {
          "internalType": "uint256",
          "name": "_clickRate",
          "type": "uint256"
        }
      ],
      "stateMutability": "nonpayable",
      "type": "constructor"
    },
    {
      "inputs": [],
      "name": "AccessControlBadConfirmation",
      "type": "error"
    },
    {
      "inputs": [
        {
          "internalType": "address",
          "name": "account",
          "type": "address"
        },
        {
          "internalType": "bytes32",
          "name": "neededRole",
          "type": "bytes32"
        }
      ],
      "name": "AccessControlUnauthorizedAccount",
      "type": "error"
    },
    {
      "inputs": [],
      "name": "ReentrancyGuardReentrantCall",
      "type": "error"
    },
    {
      "anonymous": false,
      "inputs": [
        {
          "indexed": true,
          "internalType": "address",
          "name": "publisher",
          "type": "address"
        },
        {
          "indexed": false,
          "internalType": "string",
          "name": "ipfsCID",
          "type": "string"
        },
        {
          "indexed": false,
          "internalType": "uint256",
          "name": "payout",
          "type": "uint256"
        },
        {
          "indexed": false,
          "internalType": "bytes32",
          "name": "lastHash",
          "type": "bytes32"
        }
      ],
      "name": "BatchSubmitted",
      "type": "event"
    },
    {
      "anonymous": false,
      "inputs": [
        {
          "indexed": false,
          "internalType": "string",
          "name": "promotionId",
          "type": "string"
        },
        {
          "indexed": false,
          "internalType": "string",
          "name": "creative",
          "type": "string"
        }
      ],
      "name": "PromotionAdded",
      "type": "event"
    },
    {
      "anonymous": false,
      "inputs": [
        {
          "indexed": true,
          "internalType": "bytes32",
          "name": "role",
          "type": "bytes32"
        },
        {
          "indexed": true,
          "internalType": "bytes32",
          "name": "previousAdminRole",
          "type": "bytes32"
        },
        {
          "indexed": true,
          "internalType": "bytes32",
          "name": "newAdminRole",
          "type": "bytes32"
        }
      ],
      "name": "RoleAdminChanged",
      "type": "event"
    },
    {
      "anonymous": false,
      "inputs": [
        {
          "indexed": true,
          "internalType": "bytes32",
          "name": "role",
          "type": "bytes32"
        },
        {
          "indexed": true,
          "internalType": "address",
          "name": "account",
          "type": "address"
        },
        {
          "indexed": true,
          "internalType": "address",
          "name": "sender",
          "type": "address"
        }
      ],
      "name": "RoleGranted",
      "type": "event"
    },
    {
      "anonymous": false,
      "inputs": [
        {
          "indexed": true,
          "internalType": "bytes32",
          "name": "role",
          "type": "bytes32"
        },
        {
          "indexed": true,
          "internalType": "address",
          "name": "account",
          "type": "address"
        },
        {
          "indexed": true,
          "internalType": "address",
          "name": "sender",
          "type": "address"
        }
      ],
      "name": "RoleRevoked",
      "type": "event"
    },
    {
      "anonymous": false,
      "inputs": [
        {
          "indexed": true,
          "internalType": "address",
          "name": "publisher",
          "type": "address"
        },
        {
          "indexed": false,
          "internalType": "uint256",
          "name": "amount",
          "type": "uint256"
        }
      ],
      "name": "Withdrawn",
      "type": "event"
    },
    {
      "inputs": [],
      "name": "DEFAULT_ADMIN_ROLE",
      "outputs": [
        {
          "internalType": "bytes32",
          "name": "",
          "type": "bytes32"
        }
      ],
      "stateMutability": "view",
      "type": "function"
    },
    {
      "inputs": [],
      "name": "PUBLISHER_ROLE",
      "outputs": [
        {
          "internalType": "bytes32",
          "name": "",
          "type": "bytes32"
        }
      ],
      "stateMutability": "view",
      "type": "function"
    },
    {
      "inputs": [],
      "name": "active",
      "outputs": [
        {
          "internalType": "bool",
          "name": "",
          "type": "bool"
        }
      ],
      "stateMutability": "view",
      "type": "function"
    },
    {
      "inputs": [
        {
          "internalType": "string",
          "name": "_id",
          "type": "string"
        },
        {
          "internalType": "string",
          "name": "_creative",
          "type": "string"
        },
        {
          "internalType": "string",
          "name": "_title",
          "type": "string"
        },
        {
          "internalType": "string",
          "name": "_subtitle",
          "type": "string"
        }
      ],
      "name": "addPromotion",
      "outputs": [],
      "stateMutability": "nonpayable",
      "type": "function"
    },
    {
      "inputs": [],
      "name": "budget",
      "outputs": [
        {
          "internalType": "uint256",
          "name": "",
          "type": "uint256"
        }
      ],
      "stateMutability": "view",
      "type": "function"
    },
    {
      "inputs": [],
      "name": "campaignId",
      "outputs": [
        {
          "internalType": "string",
          "name": "",
          "type": "string"
        }
      ],
      "stateMutability": "view",
      "type": "function"
    },
    {
      "inputs": [],
      "name": "clickRate",
      "outputs": [
        {
          "internalType": "uint256",
          "name": "",
          "type": "uint256"
        }
      ],
      "stateMutability": "view",
      "type": "function"
    },
    {
      "inputs": [],
      "name": "getPromotionCount",
      "outputs": [
        {
          "internalType": "uint256",
          "name": "",
          "type": "uint256"
        }
      ],
      "stateMutability": "view",
      "type": "function"
    },
    {
      "inputs": [
        {
          "internalType": "bytes32",
          "name": "role",
          "type": "bytes32"
        }
      ],
      "name": "getRoleAdmin",
      "outputs": [
        {
          "internalType": "bytes32",
          "name": "",
          "type": "bytes32"
        }
      ],
      "stateMutability": "view",
      "type": "function"
    },
    {
      "inputs": [
        {
          "internalType": "bytes32",
          "name": "role",
          "type": "bytes32"
        },
        {
          "internalType": "address",
          "name": "account",
          "type": "address"
        }
      ],
      "name": "grantRole",
      "outputs": [],
      "stateMutability": "nonpayable",
      "type": "function"
    },
    {
      "inputs": [
        {
          "internalType": "bytes32",
          "name": "role",
          "type": "bytes32"
        },
        {
          "internalType": "address",
          "name": "account",
          "type": "address"
        }
      ],
      "name": "hasRole",
      "outputs": [
        {
          "internalType": "bool",
          "name": "",
          "type": "bool"
        }
      ],
      "stateMutability": "view",
      "type": "function"
    },
    {
      "inputs": [],
      "name": "impressionRate",
      "outputs": [
        {
          "internalType": "uint256",
          "name": "",
          "type": "uint256"
        }
      ],
      "stateMutability": "view",
      "type": "function"
    },
    {
      "inputs": [],
      "name": "paymentToken",
      "outputs": [
        {
          "internalType": "contract IERC20",
          "name": "",
          "type": "address"
        }
      ],
      "stateMutability": "view",
      "type": "function"
    },
    {
      "inputs": [
        {
          "internalType": "uint256",
          "name": "",
          "type": "uint256"
        }
      ],
      "name": "promotions",
      "outputs": [
        {
          "internalType": "string",
          "name": "promotionId",
          "type": "string"
        },
        {
          "internalType": "string",
          "name": "creative",
          "type": "string"
        },
        {
          "internalType": "string",
          "name": "title",
          "type": "string"
        },
        {
          "internalType": "string",
          "name": "subtitle",
          "type": "string"
        },
        {
          "internalType": "bool",
          "name": "active",
          "type": "bool"
        }
      ],
      "stateMutability": "view",
      "type": "function"
    },
    {
      "inputs": [
        {
          "internalType": "address",
          "name": "",
          "type": "address"
        }
      ],
      "name": "publisherBalances",
      "outputs": [
        {
          "internalType": "uint256",
          "name": "",
          "type": "uint256"
        }
      ],
      "stateMutability": "view",
      "type": "function"
    },
    {
      "inputs": [
        {
          "internalType": "address",
          "name": "",
          "type": "address"
        }
      ],
      "name": "publisherLastHash",
      "outputs": [
        {
          "internalType": "bytes32",
          "name": "",
          "type": "bytes32"
        }
      ],
      "stateMutability": "view",
      "type": "function"
    },
    {
      "inputs": [
        {
          "internalType": "bytes32",
          "name": "role",
          "type": "bytes32"
        },
        {
          "internalType": "address",
          "name": "callerConfirmation",
          "type": "address"
        }
      ],
      "name": "renounceRole",
      "outputs": [],
      "stateMutability": "nonpayable",
      "type": "function"
    },
    {
      "inputs": [
        {
          "internalType": "bytes32",
          "name": "role",
          "type": "bytes32"
        },
        {
          "internalType": "address",
          "name": "account",
          "type": "address"
        }
      ],
      "name": "revokeRole",
      "outputs": [],
      "stateMutability": "nonpayable",
      "type": "function"
    },
    {
      "inputs": [],
      "name": "spent",
      "outputs": [
        {
          "internalType": "uint256",
          "name": "",
          "type": "uint256"
        }
      ],
      "stateMutability": "view",
      "type": "function"
    },
    {
      "inputs": [],
      "name": "sponsor",
      "outputs": [
        {
          "internalType": "address",
          "name": "",
          "type": "address"
        }
      ],
      "stateMutability": "view",
      "type": "function"
    },
    {
      "inputs": [
        {
          "internalType": "string",
          "name": "ipfsCID",
          "type": "string"
        },
        {
          "internalType": "uint256",
          "name": "impressions",
          "type": "uint256"
        },
        {
          "internalType": "uint256",
          "name": "clicks",
          "type": "uint256"
        },
        {
          "internalType": "bytes32",
          "name": "lastHash",
          "type": "bytes32"
        }
      ],
      "name": "submitBatch",
      "outputs": [],
      "stateMutability": "nonpayable",
      "type": "function"
    },
    {
      "inputs": [
        {
          "internalType": "bytes4",
          "name": "interfaceId",
          "type": "bytes4"
        }
      ],
      "name": "supportsInterface",
      "outputs": [
        {
          "internalType": "bool",
          "name": "",
          "type": "bool"
        }
      ],
      "stateMutability": "view",
      "type": "function"
    },
    {
      "inputs": [],
      "name": "withdraw",
      "outputs": [],
      "stateMutability": "nonpayable",
      "type": "function"
    }
  ],
  "bytecode": "0x60c06040526001600560006101000a81548160ff0219169083151502179055503480156200002c57600080fd5b5060405162002a3a38038062002a3a8339818101604052810190620000529190620004b5565b60016000819055508673ffffffffffffffffffffffffffffffffffffffff1660808173ffffffffffffffffffffffffffffffffffffffff16815250508573ffffffffffffffffffffffffffffffffffffffff1660a08173ffffffffffffffffffffffffffffffffffffffff16815250508360029081620000d39190620007c8565b50826003819055508160068190555080600781905550620000fe6000801b866200010c60201b60201c565b5050505050505050620008af565b60006200012083836200020f60201b60201c565b6200020457600180600085815260200190815260200160002060000160008473ffffffffffffffffffffffffffffffffffffffff1673ffffffffffffffffffffffffffffffffffffffff16815260200190815260200160002060006101000a81548160ff021916908315150217905550620001a06200027a60201b60201c565b73ffffffffffffffffffffffffffffffffffffffff168273ffffffffffffffffffffffffffffffffffffffff16847f2f8788117e7eff1d82e926ec794901d17c78024a50270940304540a733656f0d60405160405180910390a46001905062000209565b600090505b92915050565b60006001600084815260200190815260200160002060000160008373ffffffffffffffffffffffffffffffffffffffff1673ffffffffffffffffffffffffffffffffffffffff16815260200190815260200160002060009054906101000a900460ff16905092915050565b600033905090565b6000604051905090565b600080fd5b600080fd5b600073ffffffffffffffffffffffffffffffffffffffff82169050919050565b6000620002c38262000296565b9050919050565b620002d581620002b6565b8114620002e157600080fd5b50565b600081519050620002f581620002ca565b92915050565b600080fd5b600080fd5b6000601f19601f8301169050919050565b7f4e487b7100000000000000000000000000000000000000000000000000000000600052604160045260246000fd5b620003508262000305565b810181811067ffffffffffffffff8211171562000372576200037162000316565b5b80604052505050565b60006200038762000282565b905062000395828262000345565b919050565b600067ffffffffffffffff821115620003b857620003b762000316565b5b620003c38262000305565b9050602081019050919050565b60005b83811015620003f0578082015181840152602081019050620003d3565b60008484015250505050565b6000620004136200040d846200039a565b6200037b565b90508281526020810184848401111562000432576200043162000300565b5b6200043f848285620003d0565b509392505050565b600082601f8301126200045f576200045e620002fb565b5b815162000471848260208601620003fc565b91505092915050565b6000819050919050565b6200048f816200047a565b81146200049b57600080fd5b50565b600081519050620004af8162000484565b92915050565b600080600080600080600060e0888a031215620004d757620004d66200028c565b5b6000620004e78a828b01620002e4565b9750506020620004fa8a828b01620002e4565b96505060406200050d8a828b01620002e4565b955050606088015167ffffffffffffffff81111562000531576200053062000291565b5b6200053f8a828b0162000447565b9450506080620005528a828b016200049e565b93505060a0620005658a828b016200049e565b92505060c0620005788a828b016200049e565b91505092959891949750929550565b600081519050919050565b7f4e487b7100000000000000000000000000000000000000000000000000000000600052602260045260246000fd5b60006002820490506001821680620005da57607f821691505b602082108103620005f057620005ef62000592565b5b50919050565b60008190508160005260206000209050919050565b60006020601f8301049050919050565b600082821b905092915050565b6000600883026200065a7fffffffffffffffffffffffffffffffffffffffffffffffffffffffffffffffff826200061b565b6200066686836200061b565b95508019841693508086168417925050509392505050565b6000819050919050565b6000620006a9620006a36200069d846200047a565b6200067e565b6200047a565b9050919050565b6000819050919050565b620006c58362000688565b620006dd620006d482620006b0565b84845462000628565b825550505050565b600090565b620006f4620006e5565b62000701818484620006ba565b505050565b5b8181101562000729576200071d600082620006ea565b60018101905062000707565b5050565b601f82111562000778576200074281620005f6565b6200074d846200060b565b810160208510156200075d578190505b620007756200076c856200060b565b83018262000706565b50505b505050565b600082821c905092915050565b60006200079d600019846008026200077d565b1980831691505092915050565b6000620007b883836200078a565b9150826002028217905092915050565b620007d38262000587565b67ffffffffffffffff811115620007ef57620007ee62000316565b5b620007fb8254620005c1565b620008088282856200072d565b600060209050601f8311600181146200084057600084156200082b578287015190505b620008378582620007aa565b865550620008a7565b601f1984166200085086620005f6565b60005b828110156200087a5784890151825560018201915060208501945060208101905062000853565b868310156200089a578489015162000896601f8916826200078a565b8355505b6001600288020188555050505b505050505050565b60805160a051612157620008e360003960008181610a610152610b8401526000818161052d01526106a001526121576000f3fe608060405234801561001057600080fd5b506004361061014d5760003560e01c80637ab71b7a116100c3578063d547741f1161007c578063d547741f146103a6578063d8f4b6fd146103c2578063dad90611146103e0578063de24a5f6146103fe578063ed01bf291461041c578063ef6421401461043a5761014d565b80637ab71b7a146102d05780638ed5b0fc146102ee57806391d148541461030c578063953cf4fc1461033c578063a217fddf14610358578063d222cd92146103765761014d565b80633013ce29116101155780633013ce291461020a57806336568abe146102285780633ccfd60b146102445780634d8084241461024e57806367810dfe1461027e57806377c93662146102b25761014d565b806301ffc9a71461015257806302fb0c5e1461018257806304118d5e146101a0578063248a9ca3146101be5780632f2ff15d146101ee575b600080fd5b61016c6004803603810190610167919061133c565b610456565b6040516101799190611384565b60405180910390f35b61018a6104d0565b6040516101979190611384565b60405180910390f35b6101a86104e3565b6040516101b591906113b8565b60405180910390f35b6101d860048036038101906101d39190611409565b6104e9565b6040516101e59190611445565b60405180910390f35b610208600480360381019061020391906114be565b610509565b005b61021261052b565b60405161021f919061155d565b60405180910390f35b610242600480360381019061023d91906114be565b61054f565b005b61024c6105ca565b005b61026860048036038101906102639190611578565b6107d4565b60405161027591906113b8565b60405180910390f35b610298600480360381019061029391906115d1565b6107ec565b6040516102a995949392919061168e565b60405180910390f35b6102ba610a5f565b6040516102c7919061170c565b60405180910390f35b6102d8610a83565b6040516102e591906113b8565b60405180910390f35b6102f6610a89565b6040516103039190611727565b60405180910390f35b610326600480360381019061032191906114be565b610b17565b6040516103339190611384565b60405180910390f35b6103566004803603810190610351919061187e565b610b82565b005b610360610d32565b60405161036d9190611445565b60405180910390f35b610390600480360381019061038b9190611578565b610d39565b60405161039d9190611445565b60405180910390f35b6103c060048036038101906103bb91906114be565b610d51565b005b6103ca610d73565b6040516103d79190611445565b60405180910390f35b6103e8610d97565b6040516103f591906113b8565b60405180910390f35b610406610d9d565b60405161041391906113b8565b60405180910390f35b610424610daa565b60405161043191906113b8565b60405180910390f35b610454600480360381019061044f91906119b5565b610db0565b005b60007f7965db0b000000000000000000000000000000000000000000000000000000007bffffffffffffffffffffffffffffffffffffffffffffffffffffffff1916827bffffffffffffffffffffffffffffffffffffffffffffffffffffffff191614806104c957506104c882610fc5565b5b9050919050565b600560009054906101000a900460ff1681565b60075481565b600060016000838152602001908152602001600020600101549050919050565b610512826104e9565b61051b8161102f565b6105258383611043565b50505050565b7f000000000000000000000000000000000000000000000000000000000000000081565b610557611134565b73ffffffffffffffffffffffffffffffffffffffff168173ffffffffffffffffffffffffffffffffffffffff16146105bb576040517f6697b23200000000000000000000000000000000000000000000000000000000815260040160405180910390fd5b6105c5828261113c565b505050565b6105d261122f565b6000600960003373ffffffffffffffffffffffffffffffffffffffff1673ffffffffffffffffffffffffffffffffffffffff16815260200190815260200160002054905060008111610659576040517f08c379a000000000000000000000000000000000000000000000000000000000815260040161065090611a89565b60405180910390fd5b6000600960003373ffffffffffffffffffffffffffffffffffffffff1673ffffffffffffffffffffffffffffffffffffffff168152602001908152602001600020819055507f000000000000000000000000000000000000000000000000000000000000000073ffffffffffffffffffffffffffffffffffffffff1663a9059cbb33836040518363ffffffff1660e01b81526004016106f9929190611aa9565b6020604051808303816000875af1158015610718573d6000803e3d6000fd5b505050506040513d601f19601f8201168201806040525081019061073c9190611afe565b61077b576040517f08c379a000000000000000000000000000000000000000000000000000000000815260040161077290611b77565b60405180910390fd5b3373ffffffffffffffffffffffffffffffffffffffff167f7084f5476618d8e60b11ef0d7d3f06914655adb8793e28ff7f018d4c76d505d5826040516107c191906113b8565b60405180910390a2506107d2611275565b565b60096020528060005260406000206000915090505481565b600881815481106107fc57600080fd5b906000526020600020906005020160009150905080600001805461081f90611bc6565b80601f016020809104026020016040519081016040528092919081815260200182805461084b90611bc6565b80156108985780601f1061086d57610100808354040283529160200191610898565b820191906000526020600020905b81548152906001019060200180831161087b57829003601f168201915b5050505050908060010180546108ad90611bc6565b80601f01602080910402602001604051908101604052809291908181526020018280546108d990611bc6565b80156109265780601f106108fb57610100808354040283529160200191610926565b820191906000526020600020905b81548152906001019060200180831161090957829003601f168201915b50505050509080600201805461093b90611bc6565b80601f016020809104026020016040519081016040528092919081815260200182805461096790611bc6565b80156109b45780601f10610989576101008083540402835291602001916109b4565b820191906000526020600020905b81548152906001019060200180831161099757829003601f168201915b5050505050908060030180546109c990611bc6565b80601f01602080910402602001604051908101604052809291908181526020018280546109f590611bc6565b8015610a425780601f10610a1757610100808354040283529160200191610a42565b820191906000526020600020905b815481529060010190602001808311610a2557829003601f168201915b5050505050908060040160009054906101000a900460ff16905085565b7f000000000000000000000000000000000000000000000000000000000000000081565b60045481565b60028054610a9690611bc6565b80601f0160208091040260200160405190810160405280929190818152602001828054610ac290611bc6565b8015610b0f5780601f10610ae457610100808354040283529160200191610b0f565b820191906000526020600020905b815481529060010190602001808311610af257829003601f168201915b505050505081565b60006001600084815260200190815260200160002060000160008373ffffffffffffffffffffffffffffffffffffffff1673ffffffffffffffffffffffffffffffffffffffff16815260200190815260200160002060009054906101000a900460ff16905092915050565b7f000000000000000000000000000000000000000000000000000000000000000073ffffffffffffffffffffffffffffffffffffffff163373ffffffffffffffffffffffffffffffffffffffff161480610be55750610be46000801b33610b17565b5b610c24576040517f08c379a0000000000000000000000000000000000000000000000000000000008152600401610c1b90611c43565b60405180910390fd5b60086040518060a001604052808681526020018581526020018481526020018381526020016001151581525090806001815401808255809150506001900390600052602060002090600502016000909190919091506000820151816000019081610c8e9190611e05565b506020820151816001019081610ca49190611e05565b506040820151816002019081610cba9190611e05565b506060820151816003019081610cd09190611e05565b5060808201518160040160006101000a81548160ff02191690831515021790555050507fd1b3f35e8f99491070cb96e857f71e1b2d1c5ca00f2fcdbda54ff639612ee3b28484604051610d24929190611ed7565b60405180910390a150505050565b6000801b81565b600a6020528060005260406000206000915090505481565b610d5a826104e9565b610d638161102f565b610d6d838361113c565b50505050565b7f0ac90c257048ef1c3e387c26d4a99bde06894efbcbff862dc1885c3a9319308a81565b60065481565b6000600880549050905090565b60035481565b7f0ac90c257048ef1c3e387c26d4a99bde06894efbcbff862dc1885c3a9319308a610dda8161102f565b610de261122f565b600560009054906101000a900460ff16610e31576040517f08c379a0000000000000000000000000000000000000000000000000000000008152600401610e2890611f5a565b60405180910390fd5b600060075484610e419190611fa9565b60065486610e4f9190611fa9565b610e599190611feb565b905060035481600454610e6c9190611feb565b1115610ead576040517f08c379a0000000000000000000000000000000000000000000000000000000008152600401610ea49061206b565b60405180910390fd5b8060046000828254610ebf9190611feb565b9250508190555080600960003373ffffffffffffffffffffffffffffffffffffffff1673ffffffffffffffffffffffffffffffffffffffff1681526020019081526020016000206000828254610f159190611feb565b9250508190555082600a60003373ffffffffffffffffffffffffffffffffffffffff1673ffffffffffffffffffffffffffffffffffffffff168152602001908152602001600020819055503373ffffffffffffffffffffffffffffffffffffffff167f5441be90b1ddcf91ed57a125080c8c7bbc51d179b5f284945767ffc0a7eaaa5c88888487604051610fac94939291906120b8565b60405180910390a250610fbd611275565b505050505050565b60007f01ffc9a7000000000000000000000000000000000000000000000000000000007bffffffffffffffffffffffffffffffffffffffffffffffffffffffff1916827bffffffffffffffffffffffffffffffffffffffffffffffffffffffff1916149050919050565b6110408161103b611134565b61127f565b50565b600061104f8383610b17565b61112957600180600085815260200190815260200160002060000160008473ffffffffffffffffffffffffffffffffffffffff1673ffffffffffffffffffffffffffffffffffffffff16815260200190815260200160002060006101000a81548160ff0219169083151502179055506110c6611134565b73ffffffffffffffffffffffffffffffffffffffff168273ffffffffffffffffffffffffffffffffffffffff16847f2f8788117e7eff1d82e926ec794901d17c78024a50270940304540a733656f0d60405160405180910390a46001905061112e565b600090505b92915050565b600033905090565b60006111488383610b17565b156112245760006001600085815260200190815260200160002060000160008473ffffffffffffffffffffffffffffffffffffffff1673ffffffffffffffffffffffffffffffffffffffff16815260200190815260200160002060006101000a81548160ff0219169083151502179055506111c1611134565b73ffffffffffffffffffffffffffffffffffffffff168273ffffffffffffffffffffffffffffffffffffffff16847ff6391f5c32d9c69d2a47ea670b442974b53935d1edc7fd64eb21e047a839171b60405160405180910390a460019050611229565b600090505b92915050565b60026000540361126b576040517f3ee5aeb500000000000000000000000000000000000000000000000000000000815260040160405180910390fd5b6002600081905550565b6001600081905550565b6112898282610b17565b6112cc5780826040517fe2517d3f0000000000000000000000000000000000000000000000000000000081526004016112c39291906120f8565b60405180910390fd5b5050565b6000604051905090565b600080fd5b600080fd5b60007fffffffff0000000000000000000000000000000000000000000000000000000082169050919050565b611319816112e4565b811461132457600080fd5b50565b60008135905061133681611310565b92915050565b600060208284031215611352576113516112da565b5b600061136084828501611327565b91505092915050565b60008115159050919050565b61137e81611369565b82525050565b60006020820190506113996000830184611375565b92915050565b6000819050919050565b6113b28161139f565b82525050565b60006020820190506113cd60008301846113a9565b92915050565b6000819050919050565b6113e6816113d3565b81146113f157600080fd5b50565b600081359050611403816113dd565b92915050565b60006020828403121561141f5761141e6112da565b5b600061142d848285016113f4565b91505092915050565b61143f816113d3565b82525050565b600060208201905061145a6000830184611436565b92915050565b600073ffffffffffffffffffffffffffffffffffffffff82169050919050565b600061148b82611460565b9050919050565b61149b81611480565b81146114a657600080fd5b50565b6000813590506114b881611492565b92915050565b600080604083850312156114d5576114d46112da565b5b60006114e3858286016113f4565b92505060206114f4858286016114a9565b9150509250929050565b6000819050919050565b600061152361151e61151984611460565b6114fe565b611460565b9050919050565b600061153582611508565b9050919050565b60006115478261152a565b9050919050565b6115578161153c565b82525050565b6000602082019050611572600083018461154e565b92915050565b60006020828403121561158e5761158d6112da565b5b600061159c848285016114a9565b91505092915050565b6115ae8161139f565b81146115b957600080fd5b50565b6000813590506115cb816115a5565b92915050565b6000602082840312156115e7576115e66112da565b5b60006115f5848285016115bc565b91505092915050565b600081519050919050565b600082825260208201905092915050565b60005b8381101561163857808201518184015260208101905061161d565b60008484015250505050565b6000601f19601f8301169050919050565b6000611660826115fe565b61166a8185611609565b935061167a81856020860161161a565b61168381611644565b840191505092915050565b600060a08201905081810360008301526116a88188611655565b905081810360208301526116bc8187611655565b905081810360408301526116d08186611655565b905081810360608301526116e48185611655565b90506116f36080830184611375565b9695505050505050565b61170681611480565b82525050565b600060208201905061172160008301846116fd565b92915050565b600060208201905081810360008301526117418184611655565b905092915050565b600080fd5b600080fd5b7f4e487b7100000000000000000000000000000000000000000000000000000000600052604160045260246000fd5b61178b82611644565b810181811067ffffffffffffffff821117156117aa576117a9611753565b5b80604052505050565b60006117bd6112d0565b90506117c98282611782565b919050565b600067ffffffffffffffff8211156117e9576117e8611753565b5b6117f282611644565b9050602081019050919050565b82818337600083830152505050565b600061182161181c846117ce565b6117b3565b90508281526020810184848401111561183d5761183c61174e565b5b6118488482856117ff565b509392505050565b600082601f83011261186557611864611749565b5b813561187584826020860161180e565b91505092915050565b60008060008060808587031215611898576118976112da565b5b600085013567ffffffffffffffff8111156118b6576118b56112df565b5b6118c287828801611850565b945050602085013567ffffffffffffffff8111156118e3576118e26112df565b5b6118ef87828801611850565b935050604085013567ffffffffffffffff8111156119105761190f6112df565b5b61191c87828801611850565b925050606085013567ffffffffffffffff81111561193d5761193c6112df565b5b61194987828801611850565b91505092959194509250565b600080fd5b600080fd5b60008083601f84011261197557611974611749565b5b8235905067ffffffffffffffff81111561199257611991611955565b5b6020830191508360018202830111156119ae576119ad61195a565b5b9250929050565b6000806000806000608086880312156119d1576119d06112da565b5b600086013567ffffffffffffffff8111156119ef576119ee6112df565b5b6119fb8882890161195f565b95509550506020611a0e888289016115bc565b9350506040611a1f888289016115bc565b9250506060611a30888289016113f4565b9150509295509295909350565b7f4e6f2062616c616e636500000000000000000000000000000000000000000000600082015250565b6000611a73600a83611609565b9150611a7e82611a3d565b602082019050919050565b60006020820190508181036000830152611aa281611a66565b9050919050565b6000604082019050611abe60008301856116fd565b611acb60208301846113a9565b9392505050565b611adb81611369565b8114611ae657600080fd5b50565b600081519050611af881611ad2565b92915050565b600060208284031215611b1457611b136112da565b5b6000611b2284828501611ae9565b91505092915050565b7f5472616e73666572206661696c65640000000000000000000000000000000000600082015250565b6000611b61600f83611609565b9150611b6c82611b2b565b602082019050919050565b60006020820190508181036000830152611b9081611b54565b9050919050565b7f4e487b7100000000000000000000000000000000000000000000000000000000600052602260045260246000fd5b60006002820490506001821680611bde57607f821691505b602082108103611bf157611bf0611b97565b5b50919050565b7f4e6f7420617574686f72697a6564000000000000000000000000000000000000600082015250565b6000611c2d600e83611609565b9150611c3882611bf7565b602082019050919050565b60006020820190508181036000830152611c5c81611c20565b9050919050565b60008190508160005260206000209050919050565b60006020601f8301049050919050565b600082821b905092915050565b600060088302611cc57fffffffffffffffffffffffffffffffffffffffffffffffffffffffffffffffff82611c88565b611ccf8683611c88565b95508019841693508086168417925050509392505050565b6000611d02611cfd611cf88461139f565b6114fe565b61139f565b9050919050565b6000819050919050565b611d1c83611ce7565b611d30611d2882611d09565b848454611c95565b825550505050565b600090565b611d45611d38565b611d50818484611d13565b505050565b5b81811015611d7457611d69600082611d3d565b600181019050611d56565b5050565b601f821115611db957611d8a81611c63565b611d9384611c78565b81016020851015611da2578190505b611db6611dae85611c78565b830182611d55565b50505b505050565b600082821c905092915050565b6000611ddc60001984600802611dbe565b1980831691505092915050565b6000611df58383611dcb565b9150826002028217905092915050565b611e0e826115fe565b67ffffffffffffffff811115611e2757611e26611753565b5b611e318254611bc6565b611e3c828285611d78565b600060209050601f831160018114611e6f5760008415611e5d578287015190505b611e678582611de9565b865550611ecf565b601f198416611e7d86611c63565b60005b82811015611ea557848901518255600182019150602085019450602081019050611e80565b86831015611ec25784890151611ebe601f891682611dcb565b8355505b6001600288020188555050505b505050505050565b60006040820190508181036000830152611ef18185611655565b90508181036020830152611f058184611655565b90509392505050565b7f43616d706169676e20696e616374697665000000000000000000000000000000600082015250565b6000611f44601183611609565b9150611f4f82611f0e565b602082019050919050565b60006020820190508181036000830152611f7381611f37565b9050919050565b7f4e487b7100000000000000000000000000000000000000000000000000000000600052601160045260246000fd5b6000611fb48261139f565b9150611fbf8361139f565b9250828202611fcd8161139f565b91508282048414831517611fe457611fe3611f7a565b5b5092915050565b6000611ff68261139f565b91506120018361139f565b925082820190508082111561201957612018611f7a565b5b92915050565b7f4275646765742065786365656465640000000000000000000000000000000000600082015250565b6000612055600f83611609565b91506120608261201f565b602082019050919050565b6000602082019050818103600083015261208481612048565b9050919050565b60006120978385611609565b93506120a48385846117ff565b6120ad83611644565b840190509392505050565b600060608201905081810360008301526120d381868861208b565b90506120e260208301856113a9565b6120ef6040830184611436565b95945050505050565b600060408201905061210d60008301856116fd565b61211a6020830184611436565b939250505056fea2646970667358221220e20ab16ff0585124070136b226cc438821b386097ab12c03beff32787acf658d64736f6c63430008140033",
  "linkReferences": {},
  "deployedLinkReferences": {}
}